:020000040800F2
:10000000E806002051020008D7120008CD110008B0
:10001000D51200086B040008F91500080000000064
:10002000000000000000000000000000DB120008DB
:100030006D04000800000000D9120008DD1200085D
:100040006B0200086B0200086B0200086B020008DC
:100050006B0200086B0200086B0200086B020008CC
:100060006B0200086B0200086B0200086B020008BC
:100070006B0200086B0200086B0200086B020008AC
:100080006B0200086B0200086B0200086B0200089C
:100090006B0200086B0200086B0200086B0200088C
:1000A0006B0200086B0200086B0200086B0200087C
:1000B0006B0200086B020008851300086B02000841
:1000C0006B0200086B0200086B0200086B0200085C
:1000D0006B0200086B0200086B0200086B0200084C
:1000E0006B0200086B0200086B0200086B0200083C
:1000F0006B0200086B0200086B0200086B0200082C
:100100006B0200086B0200086B0200086B0200081B
:100110006B0200086B0200086B0200086B0200080B
:100120006B0200086B0200086B0200086B020008FB
:100130006B0200086B0200086B0200086B020008EB
:100140006B0200086B0200086B0200086B020008DB
:100150006B0200086B0200086B0200086B020008CB
:100160006B0200086B0200086B0200086B020008BB
:100170006B0200086B0200086B0200080000000020
:100180006B0200086B0200086B0200086B0200089B
:100190006B0200086B0200086B0200086B0200088B
:1001A0006B0200086B0200086B02000800F002F806
:1001B00000F03EF80AA090E8000C82448344AAF1C3
:1001C0000107DA4501D100F033F8AFF2090EBAE8C1
:1001D0000F0013F0010F18BFFB1A43F0010318477B
:1001E00090160000B0160000103A24BF78C878C1FD
:1001F000FAD8520724BF30C830C144BF04680C602D
:10020000704700000023002400250026103A28BF74
:1002100078C1FBD8520728BF30C148BF0B60704778
:100220001FB501F017FB00F0D5F81FBD10B510BDCC
:1002300000F0E2F81146FFF7F3FF01F079FA00F061
:1002400000F903B4FFF7F2FF03BC00F007F9000068
:100250000948804709480047FEE7FEE7FEE7FEE75A
:10026000FEE7FEE7FEE7FEE7FEE7FEE70448054996
:10027000054A064B7047000075130008AD010008E1
:10028000E8000020E8060020E8020020E802002044
:1002900053EA020C00F069802DE9F04B4FF00006A4
:1002A000002B1FBFB3FA83F503FA05F424FA05F611
:1002B0005E4012BF1643B2FA82F502FA05F4C5F1A8
:1002C00020051EBF22FA05FC44EA0C04203556EA3C
:1002D000044C4FEA144418BF641C4FF000084FF060
:1002E0000009904271EB030C39D3002919BFB1FA10
:1002F00081F701FA07F6B0FA80F700FA07F6C7F1BE
:1003000020071EBF20FA07FC46EA0C062037B6FB82
:10031000F4FCA7EB0507103F07F01F0BCBF12006FD
:100320000CFA0BFB2CFA06F644BFB3460026202F2E
:10033000A4BF5E464FF0000B5BEA060C08BF4FF00F
:10034000010B19EB0B09ABFB027C48EB0608C01B49
:1003500006FB02CC0BFB03CC71EB0C01C1E70B4697
:10036000024641464846BDE8F08B13B54FF0000009
:100370004FF00001AFF30080BDE81C4070474FF024
:10038000000200B5134694469646203922BFA0E8E5
:100390000C50A0E80C50B1F12001BFF4F7AF0907F1
:1003A00028BFA0E80C5048BF0CC05DF804EB8900E2
:1003B00028BF40F8042B08BF704748BF20F8022B25
:1003C00011F0804F18BF00F8012B7047704770473D
:1003D0007047000070B5064C7C44064D7D4403E038
:1003E000206820448047241DAC42F9D170BD000034
:1003F000B4140000B4140000754600F02BF8AE46AB
:1004000005006946534620F00700854618B020B520
:10041000FFF72CFFBDE820404FF000064FF000072B
:100420004FF000084FF0000B21F00701AC46ACE89C
:10043000C009ACE8C009ACE8C009ACE8C0098D4609
:10044000704710B50446AFF300802046BDE8104069
:10045000FFF7F7BE004870478800002001491820C8
:10046000ABBEFEE7260002007047FEE7704772B69B
:10047000FEE7000070B5044600F032F90546601C46
:1004800002D004480078044400F02AF9401BA0423E
:10049000FAD370BD180000202DE9F84FDFF8F8A15D
:1004A0000022012403254FF00F090AF1040BAAF1E1
:1004B000040E00BF0B6804FA02F63340B34270D159
:1004C0000F7907F00307012F01D0022F16D187689B
:1004D0004FEA420805FA08FC27EA0C07D1F80CC0DD
:1004E0000CFA08FC4CEA070CC0F808C04768B74390
:1004F0000E79C6F3001696403E4346600E79F643E9
:10050000B6070AD0C7684FEA420C05FA0CF6B743A3
:100510008E6806FA0CF63E43C6600E7906F00306B6
:10052000022E10D1D60800EB8608D8F820605707B5
:100530004FEAD76C09FA0CF7BE430F6907FA0CF7BC
:100540003743C8F8207006684FEA420C05FA0CF7EA
:10055000BE430F7907F0030707FA0CF7374307602C
:100560004E6816F4403F1CD04C4E376847F4804725
:100570003760366822F0030706F480460096484E3E
:1005800007EB060CDCF8086897073F0F09FA07F835
:1005900026EA0806DFF80C81404503D14FF0000839
:1005A00041E072E0DFF80081404502D14FF00108E0
:1005B00039E0DFF8F880404502D14FF0020832E020
:1005C000DFF8EC80404502D14FF003082BE0DFF864
:1005D000E480404502D14FF0040824E0DFF8D880E1
:1005E000404502D14FF005081DE0DFF8D0804045BE
:1005F00002D14FF0060816E0DFF8C480404502D172
:100600004FF007080FE0DFF8BC80404502D14FF003
:10061000080808E0DFF8B080404502D14FF0090833
:1006200001E04FF00A0808FA07F848EA0608CCF893
:100630000888DAF800605746D1F804C09E435FEAA4
:10064000CC2C00D51E433E60DBF800605F46D1F83D
:1006500004C09E435FEA8C2C00D51E433E60DEF84A
:1006600000607746D1F804C09E435FEA8C3C00D519
:100670001E433E60084F083F3E68D1F804C09E43C9
:100680005FEACC3C00D51E433E60521C102AFFF4AA
:1006900011AFBDE8F88F0000083C0140443802402B
:1006A0000030014000000240000402400008024007
:1006B000000C0240001002400014024000180240EA
:1006C000001C024000200240002402400069084053
:1006D00000D0012070470AB1816170470904FBE72F
:1006E00001488068704700001800002002488168B7
:1006F0000278114481607047180000200B4810B543
:10070000016841F400710160016841F48061016099
:10071000016841F480710160032000F06FF80F2040
:1007200000F006F800F024F8002010BD003C024064
:1007300070B50D4D04464FF47A712878B1FBF0F096
:100740000A490968B1FBF0F000F0ECFA48B9102C46
:1007500007D200222146501E00F030F800206C60C5
:1007600070BD012070BD0000180000202400002092
:100770000A4808B5016841F480410160006800F44E
:10078000804000900548001F016841F080510160E1
:10079000006800F08050009008BD0000443802401E
:1007A000002809DB00F01F02012191404009800070
:1007B00000F1E020C0F8001170470000F0B40E4BCB
:1007C0001B680C46C3F30223C3F10705042D00D9AF
:1007D0000425191D072901D2002300E0DB1E012694
:1007E00006FA05F1491E214099409E40761E1640AA
:1007F0003143F0BC00F001BF0CED00E0064900F011
:10080000070208684FF6FF03184040EA0220034A37
:1008100010430860704700000CED00E00000FA058E
:100820002DE9F0470E46050065D0DFF81481D8F8B1
:100830000000F7B200F00F00B04207D288F8007055
:10084000D8F8000000F00F00B04254D128683D4CA9
:10085000810712D5400703D5206840F4E05020609E
:100860002878000703D5206840F4604020602068A5
:10087000A96820F0F000084320602878C0072DD038
:10088000304968680839012812D0022813D003289B
:1008900011D00968890700292DDA216821F00301A8
:1008A00001432160FFF71CFF814641F2883A0EE0C8
:1008B00009688903EFE709688901ECE7FFF710FF92
:1008C000A0EB0901514502D90320BDE8F08720685B
:1008D000696800F00C00B0EB810FEFD1D8F8001080
:1008E000404601F00F01B14207D90770006800F0DF
:1008F0000F00B04201D00120E7E72878400705D576
:100900002068E96820F4E050084320602878000758
:1009100006D52068296920F4604040EAC1002060C3
:1009200000F018F82168084AC1F30311515CC8406F
:100930000649086006480068FFF7FAFE0020C4E791
:10094000003C0240083802405E18000824000020E5
:100950001C000020154810B5006810F00C02144867
:1009600013D01449042A0FD0082A0ED10F4C241F8B
:100970002268236802F03F025B0207D52068C0F3BB
:100980008810A0FB010106E0084610BD2168C1F3F4
:100990008811A1FB00010023FFF77AFC2168C1F355
:1009A0000141491C4900B0FBF1F010BD083802407C
:1009B0000024F40040787D012DE9F84F04006ED04A
:1009C0002078DFF84C93C007A9F104054AD009F15B
:1009D00004000168C1F38101012908D00068C0F357
:1009E000810002280AD1D9F80000400206D5286803
:1009F000800337D560680028E1D033E06068B0F547
:100A0000803F10D0B0F5A02F286810D020F480309F
:100A10002860286820F4802028606068A8B1FFF76B
:100A20005FFE06460DE0286840F48030F4E740F4AD
:100A300080202860F7E700BFFFF752FE801B642884
:100A400073D828688003F7D50CE0FFF749FE064607
:100A500005E000BFFFF744FE801B6428F0D828683B
:100A60008003F7D42078DFF8AC8280074FF0000ACB
:100A70003ED5A748001D016811F00C0F08D0006892
:100A8000C0F3810002280BD1D9F80000400207D43E
:100A90002868800716D5E068012800D112E033E10C
:100AA000E068B8B10120C8F80000FFF719FE06465B
:100AB00005E000BFFFF714FE801B0228C0D828689D
:100AC0008007F7D52868216920F0F80040EAC100C6
:100AD00028600DE0C8F800A0FFF702FE064604E01B
:100AE000FFF7FEFD801B02281FD828688007F7D477
:100AF0002078000722D5864F87486169703771B129
:100B000001210160FFF7ECFD064604E0FFF7E8FD78
:100B1000801B022809D838688007F7D50EE0C0F896
:100B200000A0FFF7DDFD064605E082E0FFF7D8FDF7
:100B3000801B02287DD838688007F7D420784007CA
:100B400068D5DFF8CCB100270BF13C0BDBF80000D7
:100B5000C0000BD4DBF8001041F08051CBF800103E
:100B6000DBF80000012700F0805000906B4E3068E9
:100B7000C00510D4306840F480703060FFF7B0FDDD
:100B8000009005E0FFF7ACFD0099401A022850D80C
:100B90003068C005F6D55E4EA0686C3601280FD0CF
:100BA0000528306810D020F001003060306820F057
:100BB00004003060A068B8B1FFF792FD00900FE02C
:100BC000306840F00100F4E740F004003060F7E7DF
:100BD000FFF786FD0099411A41F28830814266D8BC
:100BE00030688007F4D50EE0FFF77AFD009007E04B
:100BF000FFF776FD0099411A41F28830814256D8BC
:100C000030688007F4D42FB1DBF8001021F0805158
:100C1000CBF80010A069C8B33D49091D0968C1F3AC
:100C2000810102294AD00228504607D0C8F8600046
:100C300000E03CE0FFF754FD04463BE04746C8F8BF
:100C40006000FFF74DFD064605E000BFFFF748FDD9
:100C5000801B02282BD828688001F7D4D4E907012B
:100C60000843A16A2E4A490802EB0141626A41EA3F
:100C70008211084394F82C1040EA0161C9F8001071
:100C800001203866FFF72CFD044606E03EE000BF79
:100C9000FFF726FD001B022809D828688001F7D538
:100CA00034E000BFFFF71CFD001B022802D903201F
:100CB000BDE8F88F28688001F4D427E00128F7D038
:100CC000D9F80000E26900F4800191421CD1226A47
:100CD00000F03F01914217D147F6C071626A0140AE
:100CE000B1EB821F10D1A26A4FF0FF3300F4403104
:100CF00003EB5202B1EB024F06D194F82C1000F036
:100D00007060B0EB016F01D00120D1E70020CFE788
:100D10000438024000004742800E47420070004005
:100D20000000FFFF10B5401EB0F1807F01D301200D
:100D300010BD4FF0E02460610F21601700F05DFCF2
:100D40000020A06107202061002010BD704770477F
:100D500070B590F83C20012A32D0012480F83C4044
:100D6000022280F83D2003685A689D6822F07006D0
:100D70000A6832435A60134B02689A4214D0B2F1A7
:100D8000804F11D0104B9A420ED0104B9A420BD08C
:100D90000F4B9A4208D00F4B9A4205D00E4B9A4205
:100DA00002D00E4B9A4204D1496825F080031943C2
:100DB000916080F83D40002180F83C10084670BDED
:100DC000022070BD00000140000400400008004007
:100DD000000C0040000401400040014000180040A9
:100DE000704770B50446006801694FF00005C943BB
:100DF000890715D4C168C943890711D4E91E016167
:100E000001202077206880698007204602D0FFF704
:100E1000E7FF04E000F0C0F8204600F06FF9257706
:100E200020680169C943490717D4C168C943490704
:100E300013D46FF0040101610220207720688069DB
:100E400010F4407F204602D0FFF7CAFF04E000F014
:100E5000A3F8204600F052F9257720680169C943BC
:100E6000090716D4C168C943090712D46FF00801F5
:100E70000161042020772068C0698007204602D0E5
:100E8000FFF7AEFF04E000F087F8204600F036F9E7
:100E9000257720680169C943C90617D4C168C943C9
:100EA000C90613D46FF01001016108202077206873
:100EB000C06910F4407F204602D0FFF791FF04E0A4
:100EC00000F06AF8204600F019F9257720680169DA
:100ED000C943C90708D1C168C943C90704D1891EDC
:100EE0000161204600F070F920680169C9430906D4
:100EF00009D4C168C943090605D46FF080010161B6
:100F00002046FFF723FF20680169C943490609D439
:100F1000C168C943490605D46FF04001016120460C
:100F200000F053F920680169C94389060BD4C168F0
:100F3000C943890607D46FF0200101612046BDE84E
:100F40007040FFF704BF70BD10B586B00446142191
:100F50006846FFF714FA0D492068884214D10C48FE
:100F60000021026842F002020260006800F0020004
:100F70000590C02000900220CDE90101CDE90310C9
:100F800069460448FFF788FA06B010BD0008004023
:100F90003038024000040240704770B5044690F8B3
:100FA0003C0000260D4601280FD0012084F83C00AB
:100FB0006AB1042A1DD0082A2FD00C2A3FD001265E
:100FC000002084F83C00304670BD022070BD2068CF
:100FD00000F050FA2068816941F0080181612068C1
:100FE000816921F004018161206881692A691143C6
:100FF00011E0206800F06EFA2068816941F4006118
:1010000081612068816921F4806181612068816942
:101010002A6941EA02218161D2E7206800F090FA52
:101020002068C16941F00801C1612068C16921F0EF
:101030000401C1612068C1692A69114311E0206877
:1010400000F0B2FA2068C16941F40061C161206812
:10105000C16921F48061C1612068C1692A6941EADE
:101060000221C161ACE710B5040003D094F83D0043
:1010700010B107E0012010BD002084F83C0020469C
:1010800000F01EF8022084F83D00211D206800F0C9
:101090007FF9012084F8460084F83E0084F83F0080
:1010A00084F8400084F8410084F8420084F843004A
:1010B00084F8440084F8450084F83D00002010BD09
:1010C00008B500680B49884212D10B48016841F00D
:1010D000040101600068002200F004000090114645
:1010E0001E20FFF76BFBBDE808401E20FFF758BB32
:1010F00008BD000000080040403802407047000072
:1011000010B50446022249B104290ED0082913D093
:1011100094F84100012816D0012010BD94F83E003B
:101120000128F9D184F83E200FE094F83F0001280F
:10113000F2D184F83F2008E094F840000128EBD178
:1011400084F8402001E084F841200122206800F06A
:1011500083F916492068164A884201D0904203D18B
:10116000436C43F4004343642068884213D0B0F1D9
:10117000804F10D00F4988420DD00F4988420AD0C5
:101180000E49884207D0904205D00D49884202D0CE
:101190000C49884204D1816801F00701062903D077
:1011A000016841F001010160002010BD0000014014
:1011B000000401400004004000080040000C004012
:1011C000004001400018004070477047FEE70000F3
:1011D00070B586B014216846FFF7D1F81A4800248C
:1011E000016841F080010160016801F08001059112
:1011F000016841F002010160016801F002010591FE
:10120000016841F0400101600068104E00F04000AC
:101210004FF480550590002229463046FFF75BFACF
:1012200001200095CDE90104694630460394FFF79B
:1012300033F9C020CDE90004694605480294FFF760
:101240002BF906B070BD00003038024000040240A7
:101250000018024010B58AB0002407941C2168468B
:101260000894FFF78CF81A48184901600921C0E971
:10127000011444F62061C0E903148461FFF7F3FE12
:1012800008B1FFF7F4F8079407A911480894FFF78D
:101290005FFD08B1FFF7EBF86020CDE90004029490
:1012A000002269460A480494FFF777FE08B1FFF769
:1012B000DEF8042269460648FFF76FFE08B1FFF723
:1012C000D6F80348FFF740FE0AB010BD0008004002
:1012D00040000020FEE7FEE770477047FFF706BAC0
:1012E00070B592B030216846FFF749F814210CA878
:1012F000FFF745F81D480025016841F08051016065
:10130000006800F0805011901948016821F44041B4
:1013100041F4804101600068022400F440401190D3
:1013200001200090000401908001CDE906400F26C5
:1013300008966020CDE9090404200B906846FFF769
:101340003BFB08B172B6FEE74FF4C050CDE90E503A
:10135000CDE90C64109002210CA8FFF761FA002877
:1013600001D072B6FEE712B070BD000040380240F6
:10137000007000400248016841F47001016070474C
:1013800088ED00E00148FFF72CBD00004000002080
:10139000F0B50268254C264D264E274F274B4FF0BF
:1013A000804CA04209D0604507D0A84205D0B04289
:1013B00003D0B84201D0984204D122F0700E4A689E
:1013C00042EA0E02A0421BD0604519D0A84217D0B5
:1013D000B04215D0B84213D0984211D0184DA8424F
:1013E0000ED0184DA8420BD0174DA84208D0174D6B
:1013F000A84205D0164DA84202D0164DA84203D1EE
:1014000022F44075CA682A434D6922F080022A43BB
:1014100002608A68C2620A688262A04201D0984271
:1014200001D10969016301214161F0BD0000014062
:101430000004004000080040000C0040000401408F
:1014400000400140004401400048014000180040B5
:10145000001C00400020004010B501F01F030121D6
:10146000046A99408C430462016A9A401143016204
:1014700010BD0000F0B5026A22F001020262036AA8
:1014800042688469124E24F073050C682C4323F0E3
:1014900002058B682B430D4DA84201D0B04205D107
:1014A00023F00807CB683B4323F00403A84201D094
:1014B000B04205D14D6922F4407215438A692A432E
:1014C00042608461496841630362F0BD00000140ED
:1014D00000040140F0B5026A22F010020262026AC2
:1014E000436884690D6824F4E64444EA05248D6861
:1014F00022F0200242EA05120F4D104EA84201D000
:10150000B04206D1CF6822F0800242EA071222F0F0
:101510004002A84201D0B04207D14D6923F4406394
:1015200043EA85038D6943EA850343608461496822
:1015300081630262F0BD0000000001400004014030
:10154000F0B5026A22F480720262026A4368C469DA
:1015500022F4007224F073050C68124E2C438D683F
:1015600042EA05220E4DA84201D0B04206D1CF6812
:1015700022F4006242EA072222F48062A84201D0EB
:10158000B04207D14D6923F4405343EA05138D69F6
:1015900043EA05134360C4614968C1630262F0BD58
:1015A000000001400004014030B5026A22F480527C
:1015B0000262046A4268C3690D6823F4E64343EAA1
:1015C00005238D6824F4005444EA0534084DA842EC
:1015D00002D0084DA84204D14D6922F4804242EA6B
:1015E00085124260C36149680164046230BD000035
:1015F0000000014000040140FEE70907090E002831
:1016000004DB00F1E02080F80014704700F00F00C8
:1016100000F1E02080F8141D7047000010B5094863
:1016200000F0F0F800200849024600BF00EB40033C
:10163000401CCA540828F9D3BDE81040014800F006
:10164000F8B80000000000202800002010B50400B9
:1016500006D0094800F0D6F820680178012902D0A8
:1016600072B6FEF704FF401C00F0CCF8BDE8104055
:10167000014800F0DEB800000000002010B50400B2
:1016800006D0084800F0BEF820680178012902D091
:1016900072B6FEF7ECFE00210170BDE81040014873
:1016A00000F0C7B80000002010B504000ED01248AA
:1016B00000F0A8F81148002101EB4102825C3AB128
:1016C000491C0829F8D30C4800F0B3F8002010BDDD
:1016D00001EB410108440121206001702068401C99
:1016E00007D0002101704170034800F0A2F80120EA
:1016F00010BD72B6FEF7BBFE0000002028000020DF
:1017000010B5040006D0094800F07CF82068017884
:10171000012902D072B6FEF7AAFE401C00F089F83B
:10172000BDE81040014800F084B80000000000202F
:10173000FEF7E4FFFFF7D4FDFFF74AFDFFF78AFD50
:1017400004212C48FFF7DCFC00212A48FFF7D8FCD5
:10175000294E2A4C351F40212046FEF7B7FFF8B925
:101760000A20FEF787FE40212046FEF7AFFFB8B9FA
:101770002878234A56F820101160401C00F003001E
:10178000287040212046FEF7A1FF0028F9D00A204A
:10179000FEF770FE40212046FEF798FF0028F0D0AB
:1017A00080212046FEF792FF0028D4D10A20FEF7C0
:1017B00061FE80212046FEF789FF0028CBD16878A2
:1017C0000F4A121D56F820101160401C00F0030053
:1017D000687080212046FEF779FF0028F9D00A20A2
:1017E000FEF748FE80212046FEF770FF0028F0D06B
:1017F000B1E700004000002008000020001802406F
:101800003408004010B5EFF3108101F0010272B608
:10181000BFF34F8FBFF36F8F40B1417811B1FF29F4
:1018200004D000E00270491C417010BD72B6FEF792
:101830001EFE10B558B1417849B1491E11F0FF01A3
:10184000417003D10078002800D162B610BD72B695
:10185000FEF70DFE4FF04070E1EE100A70470000F9
:101860000000000000000102030406070809000050
:10187000941800080000002028000000E80100087B
:10188000BC18000828000020C00600000402000860
:101890008DFDFFFF0000000000000000504600002A
:1018A00010270000D0070000000000000100000029
:0C18B00010000000000000000024F40004
:04000005080001AD41
:00000001FF
