:020000040800F2
:100000000000032079080008590700085B07000872
:100010005D0700085F070008610700080000000096
:10002000000000000000000000000000630700085E
:10003000650700080000000067070008690700085E
:10004000C9080008C9080008C9080008C90800084C
:10005000C9080008C9080008C9080008C90800083C
:10006000C9080008C9080008C9080008C90800082C
:10007000C9080008C9080008C9080008C90800081C
:10008000C9080008C9080008C9080008C90800080C
:10009000C9080008C9080008C9080008C9080008FC
:1000A000C9080008C9080008C9080008C9080008EC
:1000B000C9080008C9080008C9080008C9080008DC
:1000C000C9080008C9080008C9080008C9080008CC
:1000D000C9080008C9080008C9080008C9080008BC
:1000E000C9080008C9080008C9080008C9080008AC
:1000F000C9080008C9080008C9080008C90800089C
:10010000C9080008C9080008C9080008C90800088B
:10011000C9080008C9080008C9080008C90800087B
:10012000C9080008C9080008C9080008C90800086B
:10013000C9080008C9080008C9080008C90800085B
:10014000C9080008C9080008C9080008C90800084B
:10015000C9080008C9080008C9080008C90800083B
:10016000C9080008C9080008C9080008C90800082B
:10017000C9080008C9080008C908000800000000F4
:10018000C9080008C9080008C9080008C90800080B
:10019000C9080008C9080008C9080008C9080008FB
:0C01A000C9080008C9080008C9080008C8
:1001AC0010B5054C237833B9044B13B10448AFF3A5
:1001BC0000800123237010BD1C00002000000000F3
:1001CC005816000808B5034B1BB103490348AFF39D
:1001DC00008008BD00000000200000205816000818
:1001EC0053B94AB9002908BF00281CBF4FF0FF3192
:1001FC004FF0FF3000F074B9ADF1080C6DE904CE8E
:10020C0000F006F8DDF804E0DDE9022304B07047E5
:10021C002DE9F047089D04468E46002B4DD18A42AD
:10022C00944669D9B2FA82F252B101FA02F3C2F1E0
:10023C00200120FA01F10CFA02FC41EA030E944071
:10024C004FEA1C48210CBEFBF8F61FFA8CF708FB92
:10025C0016E341EA034306FB07F199420AD91CEB6A
:10026C00030306F1FF3080F01F81994240F21C819C
:10027C00023E63445B1AA4B2B3FBF8F008FB1033E4
:10028C0044EA034400FB07F7A7420AD91CEB040419
:10029C0000F1FF3380F00A81A74240F207816444E9
:1002AC00023840EA0640E41B00261DB1D44000236E
:1002BC00C5E900433146BDE8F0878B4209D9002DD2
:1002CC0000F0EF800026C5E9000130463146BDE85C
:1002DC00F087B3FA83F6002E4AD18B4202D38242C6
:1002EC0000F2F980841A61EB030301209E46002D75
:1002FC00E0D0C5E9004EDDE702B9FFDEB2FA82F2CA
:10030C00002A40F09280A1EB0C014FEA1C471FFA27
:10031C008CFE0126200CB1FBF7F307FB131140EA0E
:10032C0001410EFB03F0884208D91CEB010103F1DB
:10033C00FF3802D2884200F2CB804346091AA4B29D
:10034C00B1FBF7F007FB101144EA01440EFB00FE71
:10035C00A64508D91CEB040400F1FF3102D2A645D6
:10036C0000F2BB800846A4EB0E0440EA03409CE775
:10037C00C6F12007B34022FA07FC4CEA030C20FA22
:10038C0007F401FA06F31C43F9404FEA1C4900FA42
:10039C0006F3B1FBF9F8200C1FFA8CFE09FB1811BF
:1003AC0040EA014108FB0EF0884202FA06F20BD932
:1003BC001CEB010108F1FF3A80F08880884240F282
:1003CC008580A8F102086144091AA4B2B1FBF9F0C6
:1003DC0009FB101144EA014100FB0EFE8E4508D9C1
:1003EC001CEB010100F1FF346CD28E456AD9023846
:1003FC00614440EA0840A0FB0294A1EB0E01A1422B
:10040C00C846A64656D353D05DB1B3EB080261EB98
:10041C000E0101FA07F722FA06F3F1401F43C5E972
:10042C00007100263146BDE8F087C2F12003D840A8
:10043C000CFA02FC21FA03F3914001434FEA1C47EA
:10044C001FFA8CFEB3FBF7F007FB10360B0C43EADC
:10045C00064300FB0EF69E4204FA02F408D91CEB8C
:10046C00030300F1FF382FD29E422DD9023863448A
:10047C009B1B89B2B3FBF7F607FB163341EA03412A
:10048C0006FB0EF38B4208D91CEB010106F1FF3879
:10049C0016D28B4214D9023E6144C91A46EA004670
:1004AC0038E72E46284605E70646E3E61846F8E602
:1004BC004B45A9D2B9EB020864EB0C0E0138A3E74B
:1004CC004646EAE7204694E74046D1E7D0467BE72C
:1004DC00023B614432E7304609E76444023842E7A4
:1004EC00704700BF10B514228AB00DEB020000213A
:1004FC0001F0A4F80024224B01941A6B214842F01D
:10050C0080021A631A6B02F080020192019A029423
:10051C001A6B42F002021A631A6B02F00202029288
:10052C00029A03941A6B42F008021A631A6B02F0D7
:10053C0008020392039A04941A6B42F040021A6365
:10054C001B6B03F04003049322464FF48051049B31
:10055C0000F068FB4FF48052012305A90948CDE94E
:10056C000523CDE9074400F071FA402306480794AF
:10057C0005A9CDE9053400F069FA0AB010BD00BF39
:10058C0000380240000402400018024030B595B01B
:10059C00102200210AA801F051F81422002103A80E
:1005AC0001F04CF8204B002101911A6C42F0805262
:1005BC001A641B6C1D4A03F080530193019B02913A
:1005CC00136823F4404343F480431360136803F42B
:1005DC0040430293029B01214FF480330224CDE966
:1005EC0008134FF48003CDE90E430F256023CDE9AA
:1005FC00105308A804231294139300F019FB08B1AC
:10060C0072B6FEE705904FF480524FF4C05321466A
:10061C0003A8CDE90354CDE9062300F0E7FC08B1AB
:10062C0072B6FEE715B030BD0038024000700040D5
:10063C0008B500F073F9FFF7A9FFFFF753FF00F0BF
:10064C00D1F804212C482D4C2D4D00F093FF2A4855
:10065C00002100F08FFF2B4E2848402100F0DCFADF
:10066C00F8B90A2000F086F94021204600F0D4FAAF
:10067C00B8B92B78244A56F823105163013303F090
:10068C0003032B701D48402100F0C6FA0028F9D056
:10069C000A2000F06FF94021204600F0BDFA002836
:1006AC00F0D01648802100F0B7FA0028D4D10A20E7
:1006BC0000F060F98021204600F0AEFA0028CAD183
:1006CC00124A1049137851F823000F49013303F0F3
:1006DC000303886313700948802100F09DFA0028F9
:1006EC00F9D00A2000F046F98021204600F094FA57
:1006FC000028F0D0AFE700BF3C00002000180240FB
:10070C0038000020000000200008004039000020C4
:10071C0072B6FEE782B00C4B002100915A6C42F489
:10072C0080425A645A6C02F480420092009A019101
:10073C001A6C42F080521A641B6C03F080530193C4
:10074C00019B02B0704700BF00380240FEE7FEE795
:10075C00FEE7FEE7FEE770477047704700F0F8B819
:10076C000268094B9A4282B00BD100230193074BCC
:10077C001A6C42F004021A641B6C03F0040301931C
:10078C00019B02B0704700BF0008004000380240D7
:10079C0010B5044686B01422002101A800F04EFFCB
:1007AC0022680D4B9A4215D1002300930B4B0C4839
:1007BC001A6B42F008021A631B6B03F008030093D8
:1007CC00009B4FF44052022301A9CDE9012305936C
:1007DC0000F03CF906B010BD0008004000380240A3
:1007EC00000C024010B500248AB021461C2203A83C
:1007FC00CDE9014400F022FF1A481B49846009230B
:10080C00C0E9001344F61F63C0E90334846100F0AF
:10081C007DFD08B1FFF77CFF124801A9CDE9014429
:10082C0000F0AAFE08B1FFF773FF602244F61F63C5
:10083C00CDE903230B48002203A90592079200F08F
:10084C00C7FD08B1FFF764FF0648042203A900F0B6
:10085C00BFFD08B1FFF75CFF0248FFF799FF0AB034
:10086C0010BD00BF3C00002000080040DFF834D071
:10087C000D480E490E4A002302E0D458C4500433EC
:10088C00C4188C42F9D30B4A0B4C002301E01360C3
:10089C000432A242FBD300F013F800F0ABFEFFF7DA
:1008AC00C7FE704700000320000000201C00002041
:1008BC00901600081C00002088000020FEE70000B5
:1008CC00034AD2F8883043F47003C2F8883070477A
:1008DC0000ED00E038B50E4A0E4B054618784FF483
:1008EC007A73B3FBF0F31068B0FBF3F000F09AF8F6
:1008FC00044658B90F2D09D8024629464FF0FF304F
:10090C0000F05EF8044B20461D6038BD0120FCE76A
:10091C0010000020140000201800002008B50B4B1C
:10092C001A6842F400721A601A6842F480621A6003
:10093C001A6842F480721A60032000F02FF80F201E
:10094C00FFF7C8FFFFF7E6FE002008BD003C0240A1
:10095C00034A044B11681B780B441360704700BFAB
:10096C008400002014000020014B1868704700BF61
:10097C008400002038B50446FFF7F6FF631C1CBF4B
:10098C00054B1B78054618BFE418FFF7EDFF431B1A
:10099C00A342FAD338BD00BF140000200749CA682F
:1009AC0022F4E0620302120403F4E063120C13431A
:1009BC0043F0BF6343F40033CB60704700ED00E0BD
:1009CC00164B30B5DC68C4F30224C4F10705231DB3
:1009DC00042D28BF0425062B4FF0FF338CBF033C9E
:1009EC00002403FA05F521EA0501A34022EA0302DB
:1009FC00A140002841EA0203ACBF00F16040084A64
:100A0C004FEA0313B8BF00F00F00DBB2AABF00F52A
:100A1C006140135480F8003330BD00BF00ED00E09E
:100A2C0014ED00E00138B0F1807F0BD24FF0E023E1
:100A3C00054A5861F02182F82310002007229861A2
:100A4C001A6170470120704700ED00E02DE9F74F67
:100A5C00DFF8C0916D4A00230D6801249C4004EA24
:100A6C00050CAC4340F0B9804D6805F003044FEA27
:100A7C0043080326671E06FA08F6012F6FEA0606DE
:100A8C0034D8876807EA060ECF6807FA08F747EAF2
:100A9C000E078760476827EA0C0EC5F300179F40C6
:100AAC0047EA0E074760C76807EA060E8F6807FA21
:100ABC0008F747EA0E07022CC76019D14FEAD30A90
:100ACC0000EB8A0A03F0070BDAF820704FEA8B0B65
:100ADC004FF00F0E0EFA0BFE27EA0E0E0F6907FAF7
:100AEC000BF747EA0E07CAF8207001E0032CDAD1A5
:100AFC00076804FA08F43E40264315F4403F0660AC
:100B0C006BD04FF0000ACDF804A0D9F84460404CEB
:100B1C0046F48046C9F84460D9F8446006F480462F
:100B2C000196019E23F0030606F1804606F59C36DD
:100B3C0003F0030ED6F808804FEA8E0E0F2707FA43
:100B4C000EF7A04228EA07074ED004F58064A042B5
:100B5C004CD004F58064A0424AD004F58064A042D5
:100B6C0048D004F58064A04246D004F58064A042CD
:100B7C0044D004F58064A04242D004F58064A042C5
:100B8C0040D004F58064A0423ED004F58064A042BD
:100B9C000CBF09240A2404FA0EF43C43B460946894
:100BAC006FEA0C06EF0254BF34404CEA0404946024
:100BBC00D468AF0254BF34404CEA0404D460546887
:100BCC00AF0354BF34404CEA040454601468ED0382
:100BDC0054BF34404CEA040414600133102B7FF4EE
:100BEC003BAF03B0BDE8F08F5446D4E70124D2E705
:100BFC000224D0E70324CEE70424CCE70524CAE77B
:100C0C000624C8E70724C6E70824C4E7003C0140D3
:100C1C0000000240003802400369194214BF012051
:100C2C00002070470AB1816170470904FBE700009E
:100C3C002DE9F341044640B30368DD0710D4236863
:100C4C0098075ED423681A0700F1A08023685B071D
:100C5C0000F1C080A069002840F0288100202BE022
:100C6C008F4B9A6802F00C02042A07D09A6802F0A3
:100C7C000C02082A0BD15A68510208D5884B1B6804
:100C8C009A03DCD56368002BD9D1012014E062688B
:100C9C00B2F5803F13D11A6842F480321A60FFF724
:100CAC0063FE7F4E054633689B03C8D4FFF75CFE9A
:100CBC00401B6428F7D9032002B0BDE8F081784DC1
:100CCC00B2F5A02F2B6807D143F480232B602B683F
:100CDC0043F480332B60E2E723F480332B602B68E2
:100CEC0023F480232B60002AD9D1FFF73DFE064662
:100CFC002B689F03A3D5FFF737FE801B6428F7D919
:100D0C00D9E7674B9A6812F00C0F07D09A6802F07B
:100D1C000C02082A11D15B685E020ED4604A13687B
:100D2C009D0702D5E368012BAFD11368216923F02D
:100D3C00F80343EAC103136084E7E268594BB2B18C
:100D4C0001221A60FFF710FE554D06462B689807D6
:100D5C0007D52B68226923F0F80343EAC2032B6002
:100D6C0070E7FFF701FE801B0228EFD9A3E71A609A
:100D7C00FFF7FAFD4A4E0546336899077FF562AFD7
:100D8C00FFF7F2FD401B0228F6D994E76269454B48
:100D9C0082B10122C3F8802EFFF7E6FD404E0546D6
:100DAC00736F9F073FF552AFFFF7DEFD401B022824
:100DBC00F6D980E7C3F8802EFFF7D6FD384E0546EE
:100DCC00736F98077FF542AFFFF7CEFD401B0228EB
:100DDC00F6D970E7324B1A6C12F0805228D101927E
:100DEC001A6C42F080521A641B6C03F0805301930E
:100DFC00019B01272C4D2B68D9051BD5A368284DC9
:100E0C00012B27D12B6F43F001032B67FFF7ACFDB0
:100E1C00234E054641F28838336F9B0739D5002F96
:100E2C003FF418AF1E4A136C23F08053136411E780
:100E3C000027DFE72B6843F480732B60FFF794FDEA
:100E4C0006462B68DA05D9D4FFF78EFD801B0228E5
:100E5C00F7D930E7052B04D12B6F43F004032B6734
:100E6C00D0E72A6F22F001022A672A6F22F00402CF
:100E7C002A67002BCAD1FFF777FD41F28838064666
:100E8C002B6F9807CBD5FFF76FFD801B4045F7D92B
:100E9C0011E7FFF769FD401B4045BDD90BE700BFCB
:100EAC00003802400000474200700040364DAB68ED
:100EBC0003F00C03082B3DD0344B002202281A6699
:100ECC002BD1FFF751FD06462B6899011FD4D4E9AD
:100EDC0007321343626A43EA8213E26A43EA02630B
:100EEC00A26A5208013A43EA02436B60274B264D33
:100EFC0001221A66FFF738FD04462B689A013FF56C
:100F0C00ADAEFFF731FD001B0228F6D9D3E6FFF793
:100F1C002BFD801B0228D7D9CDE6FFF725FD044613
:100F2C002B689B017FF59AAEFFF71EFD001B022874
:100F3C00F6D9C0E601283FF4BFAE6B68E26903F452
:100F4C00800191427FF4A1AE216A03F03F028A42F4
:100F5C007FF49BAE616A47F6C0721A40B2EB811FF8
:100F6C007FF493AEA26A520803F44031013AB1EB1C
:100F7C00024F7FF48AAEE26A03F07063B3EB026F48
:100F8C003FF46CAE81E600BF0038024000004742DF
:100F9C00134908B58B6803F00C03042B1CD0082BE9
:100FAC001CD14A684B68496813F4800314BF0D4880
:100FBC000D48C1F3881118BF002302F03F02A1FBBA
:100FCC000001FFF70DF9064B5B68C3F301430133D6
:100FDC005B00B0FBF3F008BD0248FCE70248FAE7FF
:100FEC000038024040787D010024F4002DE9F041E6
:100FFC000D46044610B90120BDE8F081444B1A6837
:10100C0002F00F028A4228D3226897072DD4D0070A
:10101C0041D43F4B1A6802F00F02AA4266D82268EC
:10102C0051076CD4130707D53A4A2169936823F406
:10103C00604343EAC1039360FFF7AAFF354B364A7E
:10104C009B68C3F30313D35CD840344B1860344B08
:10105C001868FFF73FFC0020CEE7CAB21A701B6875
:10106C0003F00F038B42C6D1CEE72A4B12F0040FCC
:10107C001EBF996841F4E0519960160742BF996808
:10108C0041F4604199602349A0688B6823F0F00318
:10109C0003438B60BBE762681E4B012A1CD11B68A3
:1010AC0013F4003FA7D01B4EB36823F00303134384
:1010BC00B360FFF759FC41F288380746B3686268A1
:1010CC0003F00C03B3EB820FA3D0FFF74DFCC01B56
:1010DC004045F3D903208FE7911E01291B6802D8E4
:1010EC0013F0007FDEE713F0020FDBE7EAB21A70B1
:1010FC001B6803F00F03AB427FF47DAF8FE705490C
:10110C00E0688B6823F4E05303438B608AE700BFED
:10111C00003C02400038024070160008100000200D
:10112C0018000020036A23F001030362036A70B500
:10113C00446882690D6822F073022A438D6823F09B
:10114C0002032B430E4DA84202D00E4EB04210D1DA
:10115C00CE6823F008033343A84223F0040302D0E3
:10116C00084DA84205D1D1E9055624F44074354305
:10117C002C43446082614A684263036270BD00BFC5
:10118C000000014000040140036A23F480730362F1
:10119C00036A70B54468C2690D6822F073022A4371
:1011AC008D6823F4007343EA0523114DA84203D044
:1011BC0005F58065A84214D1CD6823F4006343EA99
:1011CC0005230B4DA84223F4806303D005F58065FD
:1011DC00A84206D1D1E9055624F44054354344EADB
:1011EC0005144460C2614A68C263036270BD00BFEB
:1011FC0000000140036A23F480530362036A30B594
:10120C004468C2690D6822F4E64242EA05228D6800
:10121C0023F4005343EA0533084DA84203D005F5E7
:10122C008065A84204D14D6924F4804444EA8514B5
:10123C004460C2614A680264036230BD0000014030
:10124C00304A0368904212D0B0F1804F0FD0A2F513
:10125C007C4290420BD002F58062904207D002F59E
:10126C008062904203D002F57842904219D14A68CC
:10127C0023F070031343234A904229D0B0F1804FDE
:10128C0026D0A2F57C42904222D002F58062904298
:10129C001ED002F5806290421AD002F5784290423C
:1012AC0016D0194A904213D002F5806290420FD0AA
:1012BC0002F5806290420BD0A2F59832904207D092
:1012CC0002F58062904203D002F58062904203D115
:1012DC00CA6823F4407313434A6923F08003134311
:1012EC0003608B68C3620B688362064B984203D021
:1012FC0003F58063984201D10B69036301234361B9
:10130C00704700BF000001400040014010B504468A
:10131C0030B390F83D3003F0FF021BB980F83C204D
:10132C00FFF71EFA0223206884F83D30211DFFF7D9
:10133C0087FF012384F84630002084F83E3084F87F
:10134C003F3084F8403084F8413084F8423084F8DF
:10135C00433084F8443084F8453084F83D3010BD77
:10136C000120FCE7036A23F010030362036A70B5E3
:10137C00446882690D6822F4E64242EA05228D68CF
:10138C0023F0200343EA0513104DA84203D005F5C2
:10139C008065A84214D1CD6823F0800343EA05137D
:1013AC000A4DA84223F0400303D005F58065A842FE
:1013BC0006D1D1E9055624F44064354344EA85044A
:1013CC00446082614A688263036270BD0000014020
:1013DC0070B590F83C30012B054653D00120082AFB
:1013EC0085F83C003DD006D8C2B1042A28D0002391
:1013FC0085F83C3070BD0C2AF9D12868FFF7FAFE4D
:10140C002B680969DA6942F40062DA61DA6922F45C
:10141C008062DA61DA6942EA012231E02868FFF77A
:10142C0081FE2B6809699A6942F008029A619A69EF
:10143C0022F004029A619A690A439A610020D6E765
:10144C002868FFF78FFF2B6809699A6942F40062DC
:10145C009A619A6922F480629A619A6942EA01223D
:10146C00EBE72868FFF790FE2B680969DA6942F010
:10147C000802DA61DA6922F00402DA61DA690A43F5
:10148C00DA61DBE70220B5E7036A01F01F0110B552
:10149C0001248C4023EA04030362036A8A401A4342
:1014AC00026210BD10B5044629B990F83E30012BEC
:1014BC0018D001202DE004290DD190F83F30013BCC
:1014CC0018BF0123002BF4D104294FF0020321D1C2
:1014DC0084F83F3009E008290CBF90F8403090F8B0
:1014EC004130ECE7022380F83E3020680122FFF700
:1014FC00CBFF23681C498B4213D01C4A934210D05B
:10150C00B3F1804F14D19A6802F00702062A26D153
:10151C00002010BD08290CBF84F8403084F84130FD
:10152C00E3E75A6C8B4242F400425A64EBD0E7E793
:10153C000F4A9342E7D002F580629342E3D002F562
:10154C0080629342DFD002F578429342DBD002F501
:10155C0070529342D7D0A2F594329342D3D01A68EA
:10156C0042F001021A60D3E7000001400004014080
:10157C0000040040FFF796BF30B590F83C30012BCB
:10158C004FF0020332D080F83D3003680D685C6880
:10159C009A6824F070042C435C60154CA3421AD05A
:1015AC00B3F1804F17D0A4F57C44A34213D004F5BB
:1015BC008064A3420FD004F58064A3420BD004F5E1
:1015CC007844A34207D004F57054A34203D0A4F589
:1015DC009434A34204D1496822F080020A439A60F1
:1015EC00012380F83D30002380F83C30184630BD94
:1015FC000000014070B50D4D0D4C641BA41000266D
:10160C00A64209D10B4D0C4C00F020F8641BA41021
:10161C000026A64205D170BD55F8043B984701360B
:10162C00EEE755F8043B98470136F2E788160008B8
:10163C0088160008881600088C1600080244034619
:10164C00934200D1704703F8011BF9E7F8B500BFCE
:10165C00F8BC08BC9E467047F8B500BFF8BC08BC87
:04166C009E467047DF
:101670000000000000000000010203040607080942
:081680009CEBFF7F010000005C
:04168800D101000884
:04168C00AD010008A4
:10169000204E00005046000010270000D007000038
:0C16A0000024F400010000001000000015
:04000005080008796E
:00000001FF
